:020000040000fa
:080000000002040000000000f2
:020000040000fa
:04000800940300005d
:020000040000fa
:04000c009403000059
:020000040000fa
:040010009403000055
:020000040000fa
:040014009403000051
:020000040000fa
:04001800940300004d
:020000040000fa
:04001c009403000049
:020000040000fa
:040020009403000045
:020000040000fa
:040024009403000041
:020000040000fa
:04002800940300003d
:020000040000fa
:04002c009403000039
:020000040000fa
:040030009403000035
:020000040000fa
:04003400fa020000cc
:020000040000fa
:04003800940300002d
:020000040000fa
:04003c009403000029
:020000040000fa
:040040009403000025
:020000040000fa
:040044009403000021
:020000040000fa
:040048001e03000093
:020000040000fa
:04004c009403000019
:020000040000fa
:040050009403000015
:020000040000fa
:040054009403000011
:020000040000fa
:04005800940300000d
:020000040000fa
:04005c006e0300002f
:020000040000fa
:040060009403000005
:020000040000fa
:040064009403000001
:020000040000fa
:0400680094030000fd
:020000040000fa
:04006c0094030000f9
:020000040000fa
:0400700094030000f5
:020000040000fa
:0400740094030000f1
:020000040000fa
:0400780094030000ed
:020000040000fa
:04007c0094030000e9
:020000040000fa
:0400800094030000e5
:020000040000fa
:0400840094030000e1
:020000040000fa
:0400880094030000dd
:020000040000fa
:04008c0094030000d9
:020000040000fa
:0400900094030000d5
:020000040000fa
:040094003e03000027
:020000040000fa
:0400980094030000cd
:020000040000fa
:04009c0094030000c9
:020000040000fa
:0400a00094030000c5
:020000040000fa
:0400a40094030000c1
:020000040000fa
:0400a80094030000bd
:020000040000fa
:0400ac0094030000b9
:020000040000fa
:0400b00094030000b5
:020000040000fa
:0400b40094030000b1
:020000040000fa
:0400b80094030000ad
:020000040000fa
:0400bc0094030000a9
:020000040000fa
:0400c00094030000a5
:020000040000fa
:0400c40094030000a1
:020000040000fa
:0400c800940300009d
:020000040000fa
:0400cc009403000099
:020000040000fa
:0400d0009403000095
:020000040000fa
:0400d4009403000091
:020000040000fa
:0400d800940300008d
:020000040000fa
:0400dc009403000089
:020000040000fa
:0400e0009403000085
:020000040000fa
:0400e4009403000081
:020000040000fa
:0400e800940300007d
:020000040000fa
:0400ec009403000079
:020000040000fa
:0400f0009403000075
:020000040000fa
:0400f4009403000071
:020000040000fa
:0400f800940300006d
:020000040000fa
:0400fc009403000069
:020000040000fa
:040100009403000064
:020000040000fa
:040104009403000060
:020000040000fa
:04010800940300005c
:020000040000fa
:04010c009403000058
:020000040000fa
:040110009403000054
:020000040000fa
:040114009403000050
:020000040000fa
:04011800940300004c
:020000040000fa
:04011c009403000048
:020000040000fa
:040120009403000044
:020000040000fa
:040124009403000040
:020000040000fa
:04012800940300003c
:020000040000fa
:04012c009403000038
:020000040000fa
:040130009403000034
:020000040000fa
:040134009403000030
:020000040000fa
:04013800940300002c
:020000040000fa
:04013c009403000028
:020000040000fa
:040140009403000024
:020000040000fa
:040144009403000020
:020000040000fa
:04014800940300001c
:020000040000fa
:04014c009403000018
:020000040000fa
:040150009403000014
:020000040000fa
:040154009403000010
:020000040000fa
:04015800940300000c
:020000040000fa
:04015c009403000008
:020000040000fa
:040160009403000004
:020000040000fa
:040164009403000000
:020000040000fa
:0401680094030000fc
:020000040000fa
:04016c0094030000f8
:020000040000fa
:0401700094030000f4
:020000040000fa
:0401740094030000f0
:020000040000fa
:0401780094030000ec
:020000040000fa
:04017c0094030000e8
:020000040000fa
:0401800094030000e4
:020000040000fa
:0401840094030000e0
:020000040000fa
:0401880094030000dc
:020000040000fa
:04018c0094030000d8
:020000040000fa
:0401900094030000d4
:020000040000fa
:0401940094030000d0
:020000040000fa
:0401980094030000cc
:020000040000fa
:04019c0094030000c8
:020000040000fa
:0401a00094030000c4
:020000040000fa
:0401a40094030000c0
:020000040000fa
:0401a80094030000bc
:020000040000fa
:0401ac0094030000b8
:020000040000fa
:0401b00094030000b4
:020000040000fa
:0401b40094030000b0
:020000040000fa
:0401b80094030000ac
:020000040000fa
:0401bc0094030000a8
:020000040000fa
:0401c00094030000a4
:020000040000fa
:0401c40094030000a0
:020000040000fa
:0401c800940300009c
:020000040000fa
:0401cc009403000098
:020000040000fa
:0401d0009403000094
:020000040000fa
:0401d4009403000090
:020000040000fa
:0401d800940300008c
:020000040000fa
:0401dc009403000088
:020000040000fa
:0401e0009403000084
:020000040000fa
:0401e4009403000080
:020000040000fa
:0401e800940300007c
:020000040000fa
:0401ec009403000078
:020000040000fa
:0401f0009403000074
:020000040000fa
:0401f4009403000070
:020000040000fa
:0401f800940300006c
:020000040000fa
:0401fc009403000068
:020000040000fa
:040200009403000063
:020000040000fa
:04020400940300005f
:020000040000fa
:04020800940300005b
:020000040000fa
:04020c009403000057
:020000040000fa
:040210009403000053
:020000040000fa
:04021400940300004f
:020000040000fa
:04021800940300004b
:020000040000fa
:04021c009403000047
:020000040000fa
:040220009403000043
:020000040000fa
:04022400940300003f
:020000040000fa
:04022800940300003b
:020000040000fa
:04022c009403000037
:020000040000fa
:040230009403000033
:020000040000fa
:04023400940300002f
:020000040000fa
:04023800940300002b
:020000040000fa
:04023c009403000027
:020000040000fa
:040240009403000023
:020000040000fa
:04024400940300001f
:020000040000fa
:04024800940300001b
:020000040000fa
:04024c009403000017
:020000040000fa
:040250009403000013
:020000040000fa
:04025400940300000f
:020000040000fa
:04025800940300000b
:020000040000fa
:04025c009403000007
:020000040000fa
:040260009403000003
:020000040000fa
:0402640094030000ff
:020000040000fa
:100400002f0421000eff27000e01880000000000cd
:10041000000020000000e000020032000001200087
:100420002002880014000700c10007000000e0005f
:1004300003003a00e08d2100010020000200370097
:100440000000200001002000810f70000100320038
:100450000f000700000020000000e0000200320052
:100460000000020000000000e20b0200000000009b
:100470000040da000000fe00200020000000e00044
:1004800002003200100020009001880000000600e9
:10049000a1028800800478000000eb001f003700f4
:1004a000e284440054a0b4009905ba00e2844400f8
:1004b00054a0b4009906ba00e284440054a0b400e9
:1004c0000006eb00476fde00fd07b200ae018800ba
:1004d000636ce10003003a000ad801000000eb0061
:1004e0000e003700606ce10008003a00004deb00a0
:1004f0000a05e800020039003420ec000af0a000f0
:100500008b05e900f9ff3e00040037006168e10057
:10051000010032000086eb000b00070019c7ba008b
:100520000e04e0001905ba0003003a000a00e000da
:10053000dbff3a0000000600fe07b200ae028800b2
:100540008a047800f5ff37000cd0a300e20f4d00bd
:100550001c003b0089027800354dba000a05e8000e
:10056000020039003420ec000af0a0008b05e900fd
:100570000f003200254dba000a05e80002003900dc
:100580003420ec000af0a0008b05e90008003200de
:100590000c00e0000600320015cdba000a05e800a4
:1005a000020039003420ec000af0a0008b05e900bd
:1005b0008984e80054a0b4000b00e000e2ff3a0098
:1005c000000006009902ba00055d78008b05e9007d
:1005d000f7ff3200c82ade00055d78008b05e900d0
:1005e000f3ff32000c00e000f1ff320019ddba0029
:1005f000eeff37003600f800809fbe00829fbe00ed
:10060000849fbe00869fbe000000fa000068a9001b
:10061000610a0700720807004c050700000000008f
:100620000080fa004f03be004f02be004f01be0023
:100630004f00be003600f900004006003600f8000a
:10064000809fbe00829fbe00849fbe00869fbe002a
:100650000000fa000108a90061080700000000007e
:100660000080fa004f03be004f02be004f01be00e3
:100670004f00be003600f900004006003600f800ca
:10068000809fbe00829fbe00849fbe00869fbe00ea
:100690000000fa000368a9004280800053808000b7
:1006a000100020000100200002004000838048006c
:1006b00040808800518088009205070000000000fb
:1006c0000080fa004f03be004f02be004f01be0083
:1006d0004f00be003600f90000400600801f780081
:1006e0000000fa0001a8a90000188000c08188005d
:1006f00010188000d081880020188000e0818800d8
:1007000030188000f0818800401880000082880046
:1007100010c0b3000ff0b700000000000080fa0026
:100720004f007800004006000040da000000fe00a4
:100730000000050014002000aa033700f4ff2f007a
:10074000a80337000001be003c0007000470a700aa
:1007500003f0a1006509b100160032000d0035005c
:100760006828e10006003500f0ff2f00f1ff2700a8
:100770000300e00013003b0001002800000005001a
:1007800000004000818048008502e900fcff3a003b
:1007900008003700f88f420002003c008000eb00a8
:1007a000000005008100d1000080d3008502e80030
:1007b000fcff3a000300e00002003b006000100074
:1007c000e0801800000006000001be001b000700ca
:1007d0000470a70003f0a10003f8a30013003a007f
:1007e0006509b10010003200090035006928e100f8
:1007f0000200350001002800000005000000400054
:10080000818048008502e900fcff3a0000000600f4
:10081000f88f4200050035008100d1000080d30030
:100820008502e800fcff3a00000006008000eb00b3
:10083000000005006011b80085033700c70ade001c
:10084000f107b200f50fb20008003200e1cf42001c
:10085000020032000170a00024000500810f70002a
:10086000010032000408050044000500810f7000fb
:1008700002003a00140005008502e9000000400073
:1008800081c04800fcff3b000170a000240005006f
:1008900007f82700078361000638e10004003a00ea
:1008a000f7072000878361008703710001003a0089
:1008b00003f0a200889fbe008a9fbe008c9fbe00ee
:1008c000470ade000480a100c71ade000580a100ef
:1008d000070028000785600087856100f70f20006a
:1008e0000720e1009e0032000728e1009c00320052
:1008f000010678000400e000b4003200f707200091
:10090000878060000170a0000500e000c000320098
:10091000f7072000878161000370a00005065200e0
:100920000f003a000b50e1000b0032000308e10019
:1009300002003a000200e1007e0032000204500092
:1009400083845800040031000001fd008101fd0096
:100950008402fd008a05fd006044b80021003700d4
:100960000520e10005003d000001fd008101fd00c2
:100970008402fd008a05fd00050652007a60e10050
:10098000050035000170a1004722dd008480700061
:100990008a807000630037006044b800ef02660090
:1009a00007ff2f00070666000500e0000600340080
:1009b000f08312008714dd000511de00071bdd0047
:1009c000060171008519de007060e1000500350048
:1009d0000904780082047800030178008001eb00ac
:1009e000700656000b50e10003003a000200400080
:1009f000838048000400370060041400e0841c0079
:100a000002005800838058000188a30006003200cd
:100a10008100d1000080d3008984d3000884d300f2
:100a20000402e800270037000178a30025003a00ff
:100a30000100e000030032008186cf006986560085
:100a40000a0037008c0020000000e00004003a009b
:100a500009007800880478000004eb00700252005e
:100a60008086cf000d0646000c06e9007060e100ac
:100a700006003500800078000900780088047800be
:100a80000004eb0070065600700252000c00e000fb
:100a90000c0034008c08dd00f00316000703de00b4
:100aa000868070000c00dd00074bde000600700041
:100ab0008c4cdd000743de00868474000c44dd00ae
:100ac0000c0252006120e10020003500610160004d
:100ad0000700280087816400f7ff270087836400f0
:100ae000070374000300e000060032008203730075
:100af000040032000000e800e08048000188a30004
:100b00000e003a00f70f20000720e1004a003d00e8
:100b10000170a1004722dd00810072008a80700010
:100b20000000be004f06be004f05be004f04be00d1
:100b3000000006006000b800faff37008100d10015
:100b40000080d3000402e800eeff370004017800c3
:100b500089017400a10107008a807000f1ff37004d
:100b6000f7010700070278000001fd008101fd0088
:100b7000f301070087027800850372000778a3005d
:100b8000040032000001fd008101fd0006020700a3
:100b9000e4ff3700850362000768a3000800320005
:100ba0000b50e10003003200f0ff2f00f1ff27009f
:100bb000dcff37000001fd008101fd00d9ff370097
:100bc0000468a300d7ff3200faff3700f8ff2700c0
:100bd000888360000b003a000000e00009003a0042
:100be0008303640082837300020032000200be00af
:100bf000ccff37000b50e100ceff3a000200be00f0
:100c0000c8ff370014002000810064003eff370059
:100c1000f8ff27008883610004003a000200e0002a
:100c200002003a008c007800beff3700150020005b
:100c30008301640039ff370001f82700000020001d
:100c400081007500b7ff3700889fbe008a9fbe00f5
:100c50008c9fbe001b0020000202be0005866800bb
:100c600006002800060666004709de00f20fb20003
:100c7000820032000243e80080003200c729de0013
:100c8000f30fb2007d0032000343e8007b00320026
:100c9000f107b2000170a000f507b2000570a000d6
:100ca000c708dd004903de00868070004700dd00d4
:100cb000c72add004923de00868272004722dd005c
:100cc00003055100040350008583580003003100e0
:100cd00000004000818048000a05e9008c1f780070
:100ce0008a9fbe0004005000858058000402420024
:100cf00085824a0000004000818048000005eb002a
:100d00000004be006033b8000406be000d48e100d8
:100d100056003100110009004dccd8000c01b8007c
:100d20000d02b8008481410060824a008283530032
:100d300003045c0084845c0060055d000a00e00040
:100d400025003a00800578000d40e100490031009f
:100d50008800780007007800110009004d88d8004d
:100d60000c01b8000d02b8008481410060824a0085
:100d70006003110083835b0004045c00e0845c007a
:100d80000900e00021003a004f01be000300e0002e
:100d90002b003200e3016000070673008c817100b4
:100da00001003200640070004200de004e5edd0093
:100db0000c007000c258de0001e0a00083010700b3
:100dc000cf017800818071004f06be004f05be0044
:100dd0004f04be00000006008c8343000d044c004d
:100de000e0844c0060054d000000e9000a00e000ce
:100df000d4ff32008c8343000d044c00e0844c008f
:100e000060054d000000e900ceff37000c034300f1
:100e10008d834b0060044c00e0844c000000e9002e
:100e20000900e000d8ff32000c0343008d834b0023
:100e300060044c00e0844c000000e900d2ff370061
:100e40004200de004e5edd000c007000c258de0085
:100e500001e0a000cf0178000300e000daff3200db
:100e600060001000e0801800d7ff3700f0ff2f006f
:100e7000aaff3700f0ff2f00b9ff37000404be00bf
:100e80002f010700870678000004fd008104fd00a3
:100e90002b010700078366000678a30003003200d9
:100ea0000960a7000800be002c0037000d78a300e1
:100eb000020032000800be00280037000778a300b7
:100ec00026003a0001f0a10009f0a1000668a30085
:100ed00003003200f1ff2700f0ff2f00baff3700b8
:100ee0000d68a300030032000800be008c80700073
:100ef000b5ff37000768a30007003a000648a300c3
:100f000003003200f1ff2700f0ff2f00aeff370093
:100f10000d48a300030032006000b8008c80700010
:100f2000a9ff37000748a3000400320001f827009a
:100f3000000020008c807000a3ff370076010700be
:100f40000004fd008104fd00020578007201070025
:100f50000802be008a01780059ff37000160a00036
:100f6000120220008280880097ff37000100e00015
:100f7000120032000500e00010003200889fbe0021
:100f80008a9fbe008c9fbe000006eb0001f8a30004
:100f90000300320060001000e08018000cf0a00098
:100fa00005f8a3000300320060021200e0821a007c
:100fb0000cf0a2008005eb0041ff37006000b80094
:100fc0000200050003836800070028000703630090
:100fd000470ade000480a100c71ade000580a100d8
:100fe000f70f20000720e100420032000728e1004f
:100ff00040003200889fbe008a9fbe008c1f780090
:10100000f107b200f307b2000400e0006400320010
:101010000170a0000500e000680032000370a0002d
:1010200085054200eb07b1000204b8000302b800d6
:101030008484440060854a00020ab8008484440025
:101040000a854a00030ab80004054500040033007d
:101050000804d0008984d2000a85d2008b05e900fb
:101060006158e1003d0035000210200009016100d7
:101070000308200089816100f7072000878364004e
:1010800008867300c84cde00c853dd0087847400f6
:101090004855de000300e0000600320082037600bf
:1010a000040032008904e80060054d000a88a300ae
:1010b0000c003a00f70f20000758e10044003d0003
:1010c0000a70a100c75ddd000a8575008a00730003
:1010d000090078004f0678004f05be004f04be009f
:1010e000000006000a05d1008984d3008b05e800c2
:1010f000f0ff3700881f7800060478009000070092
:10110000070278000001fd008101fd008c0007004e
:1011100087027800850372000778a300050032007b
:101120000001fd008101fd009f0007004f047800d1
:1011300000000600850372000748a3000300320088
:10114000f0ff2f00f1ff2700f8ff3700000020001c
:1011500001f8270088807000f4ff370088017800cc
:101160004848dd00808171004848de00c850dd003d
:1011700001007000c850de00060478000b01780002
:101180001600070088807000d2ff37000500e000dd
:1011900005003200170020003a0007009dff3700cd
:1011a00081037000f9ff3a00860078004f0678004e
:1011b0004f05be004f04be00000005008303710010
:1011c000f9ff3200270020002e00070094ff3700af
:1011d00001f8270086807000f4ff37000100e0006e
:1011e00026003200610111007810e10023003c006c
:1011f0006022b8007010e100040035008002780021
:10120000010078008000eb00700151000200e00056
:101210000900340070031100062add00822ade0076
:101220008603dd00878272000200de00860bdd008f
:10123000070070008208de0084817100f4ff27003f
:1012400004826200848171000400280084826200ac
:101250006102600005f0a600000006000482710033
:10126000070032000000e800e080480000000600af
:101270000002be006000b800efff37006000b80059
:1012800000000600889fbe000004eb006138e1000a
:1012900016003a000100e00008003a00c800de0035
:1012a0004800dd00880020000100e00003003a0053
:1012b000c800de004800dd00680444008184cf00df
:1012c000e9845400060034008908dd00f08314002e
:1012d0008703de00878070000900dd0009044400f8
:1012e000610214004f04be00000006000300e0008d
:1012f00008003a00c811de004811dd008800200017
:101300000300e00003003a00c811de004811dd00d0
:10131000680444008384cf00e9845400060034004c
:101320008919dd00f08314008713de0087817100c6
:101330000911dd0009044400e1021400e9ff37004f
:101340002700200001f0a70017002000470bde0057
:10135000f60fb200040032000643e8000a00320033
:101360004702b3000000060001037800f607b20050
:101370000603700002003a000703b30000000600f5
:101380008702b3000000060001037800f607b200f0
:1013900006037000020032000770a0000000060083
:1013a0000760a000000006000478a30004003200db
:1013b0000578a300030032000168a30001003a0091
:1013c0000200be000160a000000006008101700064
:1013d000270032008002eb0001f8a3000300320076
:1013e00060001000e080180015002000f4072000c5
:1013f0000202420020003400f7032000870360004f
:1014000006042000000363000208200000016100c0
:101410004700de00c909dd0000807100c708de005a
:101420000600e00008003200870371000600320069
:101430001000b0000180b0000188a300020032005b
:10144000c108de000402e800f107b200f30f20003b
:101450000320e10003003d004722dd00810072000f
:101460002900370001f827000000eb0026003700b4
:101470006000b80000000600680212007f20e10052
:10148000020034006000b8001f0037006011b8008f
:101490007020e10004003500800178000100780030
:1014a0008000eb00700252000400e00009003400ec
:1014b000f00312000719dd008419de000703dd00c8
:1014c000868171000400de00070bdd00060070005d
:1014d0008408de00f7ff2700838363008703710021
:1014e0000600280003036300070032000700e00045
:1014f00003003a00610160000281730002003200c3
:101500001000b0000180b0000500a6000000060039
:1015100001f0a000000006004f0ade004709de00cf
:10152000f107b200f20fb2000b003200f207b10077
:101530000170a000c708dd00c901de0083807000d3
:101540004700dd000400a600000006006000100057
:10155000e080180000000600810f700001003a00d2
:10156000000006008182cf000500e00010003e0070
:101570008082cf00ee8242007028e1000400390032
:1015800007003e00800078000000eb000e003700ee
:10159000708312008600de000500dd000a003700bf
:1015a000708352008600dd000000eb00060037006b
:1015b000e28252008508dd00708312000603de001f
:1015c000868070000500dd007507b0000501ea00a7
:1015d0000400a6000000060060001000e080180073
:1015e00000000600889fbe008a9fbe00841f78000e
:1015f0006c0007004f00780011003300f0ff2f004f
:10160000838f6c0006003b00040565000a00a700fc
:101610000800370009f0a60010002000080037007d
:10162000820f5400838f5c000300390010002000fb
:1016300001003e000000200009f0a7000000ea00c1
:101640004f05be004f04be000000e0000000060091
:10165000889fbe008a9fbe00008270000402710055
:1016600004827100260032000004be000200be00a9
:101670006011b8006b092000950220000182cf00a4
:101680000a0039000541b1000082cf00070039008f
:101690000541b1000982cf00040039000541b100c5
:1016a0000882cf00010039000541b1000542520017
:1016b000120032000a003b00828171006101640067
:1016c0008100d1000080d3008984d3000884d30036
:1016d0008b05e8000442e800f7ff3a0007003700f6
:1016e0000804440089844c000000480081804800c0
:1016f0008b05e9000442e900f9ff3a000300070006
:101700004f05be004f04be0000000600810020000f
:10171000618055000b003d000b00200061fe2f0092
:101720000100e1001d00340082817100610164004c
:101730008904d1000884d3000000e800faff3a00d1
:10174000710020006100640003007000020060006e
:101750000900320061044400e0844c000988a500bf
:10176000050032008b05e8006808e10002003a003d
:101770008904d1000884d300f20f20000258e10050
:1017800005003d00c75ddd00f907b20089807500e6
:1017900008007800000006000bf827008b00780096
:1017a000000005000004be0024fc07000003be008a
:1017b0000405be000200be0020fc0700844f750037
:0417c000000006001f
:020000040000fa
:1017c4000600fa0005060700510607004e0207004e
:1017d4002803070058020700e4030700b0050700c8
:1017e40000002000a14724002b030700f205070096
:1017f400e14f5000fdff3a00f3050700ea0507003a
:10180400000f78001e007800100078008000eb00c4
:1018140007fc07003233230033052400e8fd0700ea
:10182400000178000100780082027800000278004c
:10183400020020000358240005007800840078008a
:101844000000be00fffc0700100798002107980065
:101854001e019000ae0190000000200081202400b1
:10186400f8fc07000001780001007800820278008b
:101874000002780002002000030a2400050078001a
:10188400840078000000be0000fc0700800178009e
:101894000101780003007800820078000000be0097
:1018a400a0818800b18188001e80e80010007800c3
:1018b4008000eb00defb07003233230033052400f5
:1018c400bffd070000017800010078008202780063
:1018d400000278000200200003582400050078006c
:1018e400840078000000be00d6fc070010079800b2
:1018f400210798001e019000ae0190000000200016
:1019040081202400cffc070000017800010078004a
:10191400820278000002780002002000030a2400fa
:1019240005007800840078000000be00d7fb0700a3
:1019340080017800010178000300780082007800bb
:101944000000be00408188005181880041002000d1
:101954001e804000100078008000eb00b4fb0700fc
:10196400323323003305240095fd0700000178007d
:101974000100780082027800000278000200200052
:101984000358240005007800840078000000be009d
:10199400acfc070010079800210798001e01900076
:1019a400ae0190000000200081202400a5fc070067
:1019b40000017800010078008202780000027800bb
:1019c40002002000030a2400050078008400780047
:1019d4000000be00adfb0700800178000101780023
:1019e40003007800820078000000be002081880097
:1019f40031818800610020001e80400010007800c2
:101a04008000eb008afb07003233230033052400f7
:101a14006bfd070000017800010078008202780065
:101a2400000278000200200003582400050078001a
:101a3400840078000000be0082fc070010079800b4
:101a4400210798001e019000ae01900000002000c4
:101a5400812024007bfc070000017800010078004d
:101a6400820278000002780002002000030a2400a9
:101a740005007800840078000000be0083fb0700a6
:101a8400800178000101780003007800820078006a
:101a94000000be0060818800718188008100200000
:101aa4001e804000100078008000eb0060fb0700ff
:101ab400323323003305240041fd07000001780080
:101ac4000100780082027800000278000200200001
:101ad4000358240005007800840078000000be004c
:101ae40058fc070010079800210798001e01900079
:101af400ae019000000020008120240051fc07006a
:101b04000001780001007800820278000002780069
:101b140002002000030a24000500780084007800f5
:101b24000000be0059fb0700800178000101780025
:101b340003007800820078000000be0080818800e5
:101b44009181880029ff37000000fa00808180001d
:101b54009181800002002000031f2400f4fa070092
:101b64000000e00002003d00754ea80001003700af
:101b7400754ea90060818000718180000200200000
:101b8400031f2400eafa07000000e00002003d0001
:101b9400856ea80001003700856ea90020818000b1
:101ba4003181800002002000031f2400e0fa0700b6
:101bb4000000e00002003d00848ea8000100370010
:101bc400848ea900408180005181800002002000a1
:101bd400031f2400d6fa07000000e00002003d00c5
:101be40084aea8000100370084aea900a081800063
:101bf400b181800002002000031f2400ccfa0700fa
:101c04000000e00002003d0084cea800010037007f
:101c140084cea900000000000080fa000000060045
:101c24000200fa000040eb00004f7800a081800021
:101c3400b181800002002000031f2400bcfa0700c9
:101c44000000e00003003d001e4078000044a000b6
:101c5400004f780040818000518180000200200004
:101c6400031f2400b2fa07000000e00003003d0057
:101c74001e4078000034a000004f780020818000ce
:101c84003181800002002000c3202400a8fa07004c
:101c94000000e00003003d001e4078000024a00086
:101ca400004f780060818000718180000200200074
:101cb400031f24009efa07000000e00003003d001b
:101cc4001e4078000014a000004f7800808180003e
:101cd4009181800002002000031f240094fa070071
:101ce4000000e00003003d001e4078000004a00056
:101cf400004f78001e4078000080fa0000000600c3
:101d04000200fa00c6ff0700004f78001e80fb00a7
:101d14006100b900f201200003002000820f50008e
:101d2400838f580081003e00000601001f00370029
:101d34002100370023003700250037002700370033
:101d4400290037002b0037002d0037002f00370003
:101d540031003700330037003500370037003700d3
:101d6400390037003b003700400037003c003700a3
:101d74004100370043003700450037004700370073
:101d8400490037004b0037004d0037004f00370043
:101d94005100370053003700550037005700370013
:101da400590037005b0037005d00370020c0b300e6
:101db400004f78006000370040c0b300004f780047
:101dc4005d00370040c0b300004f78005a00370070
:101dd40040c0b300004f78005700370080c0b30004
:101de400004f78005400370080c0b300004f7800e3
:101df4005100370080c0b300004f78004e00370018
:101e040080c0b300004f78004b00370060c0b300bf
:101e1400004f780048003700a0c0b300004f78009e
:101e240045003700a0c0b300004f780042003700df
:101e3400a0c0b300004f78003f003700a0c0b3003b
:101e4400004f78003c003700a0c0b300004f78007a
:101e540039003700e0c0b300004f78003600370087
:101e640060c0b300004f780033003700e0c0b30017
:101e7400004f78003000370060c0b300004f780096
:101e84002d003700a0c0b300004f78002a003700af
:101e9400a0c0b300004f780027003700a0c0b300f3
:101ea400004f780024003700a0c0b300004f780032
:101eb40021003700e0c0b300004f78001e00370057
:101ec400e0c0b300004f78001b00370060c0b300cf
:101ed400004f78001800370060c0b300004f78004e
:101ee40015003700a0c0b300004f7800120037007f
:101ef400a0c0b300004f78000f003700e0c0b3006b
:101f0400004f78000c003700e0c0b300004f7800a9
:101f140009003700e0c0b300004f78000600370026
:101f24000040eb00004f780003003700a0c0b3006e
:101f3400004f7800000000001e80fb00e60f5000f8
:101f44002b003200e60f500007003c00e20f500067
:101f54000c003200e40f5000180032000000e000d2
:101f64005a00320065003700ea0f50003b0032008f
:101f7400ee0f500047003200e80f500029003200f5
:101f84005e0037000001eb00000020004120240027
:101f9400100307001200200000002000412024004c
:101fa4000c030700040ea800052ea80095eea80057
:101fb400054ea800746ea800500037000001eb0025
:101fc40000002000011f240002030700120020006b
:101fd4006000b800ff020700040ea900052ea90046
:101fe40095eea900054ea900746ea90043003700c0
:101ff4000001eb006000b800f602070012002000a8
:1020040000002000011f2400f2020700040ea900b2
:10201400052ea90095eea900054ea900746ea9002d
:10202400360037000001eb00000020008118240076
:10203400e8020700120020000000200081182c0094
:10204400e4020700040ea900052ea90095eea900dc
:10205400054ea900746ea900280037000001eb00aa
:102064000000200081182c00da0207001200200072
:102074000000200081182400d6020700040ea900e5
:10208400052ea90095eea900054ea900746ea900bd
:102094001a0037000001eb0000002000011a2c0098
:1020a400cc0207001200200000002000011a2c00be
:1020b400c8020700040ea900052ea90095eea90088
:1020c400054ea900746ea9000c0037000001eb0056
:1020d4006000b800bf020700120020006000b800d2
:1020e400bc020700040ea900052ea90095eea90064
:1020f400054ea900746ea900000000000000000055
:102104000080fa00000006000000fa0005e1a900c2
:102114000421a9000068a9002068a80005e1a8001e
:1021240000002000812424001d000700000000009e
:102134000080fa00000006000000fa0013e1a90084
:1021440011e1a9001061a8001021a90080088000f5
:102154000040a1000050a100800888000a21ef007f
:102164000621ef0030392000700888000070280034
:1021740060088800204280000000a0000010a10038
:102184000020a100204288000108a9002108a8001d
:1021940011e1a800000000000080fa000000060021
:1021a4000400fa00008fbe00200880000040a00058
:1021b4000050a100200888001e0178009e019000b4
:1021c400001c2e0041c624009efa0700000178007e
:1021d40001007800820278000002780002f02f00eb
:1021e400f377240005007800840078000000be0026
:1021f40051f907000000e0008d0034002008800041
:102204000040a0000050a100200888001e017800b2
:102214009e019000001c2e0041c6240089fa07008c
:102224000001780001007800820278000002780042
:1022340002002000031024000500780084007800c8
:102244000000be007ffa070000017800010078005a
:10225400820278000002780002f02f00f377240055
:1022640005007800840078000000be0032f9070001
:102274000000e00055003400200880000040a10068
:102284000050a000200888001e0178009e019000e4
:10229400001c2e0041c624006afa070000017800e1
:1022a4000100780082027800000278000200200019
:1022b4000328240005007800840078000000be0094
:1022c40060fa0700000178000100780082027800bb
:1022d4000002780002f02f00f37724000500780054
:1022e400840078000000be0013f907000000e0003d
:1022f4001d003400200880000040a0000050a00011
:10230400200888001e0178009e019000001c2e0009
:1023140041c624004bfa0700000178000100780050
:1023240082027800000278000200200003382400b2
:1023340005007800840078000000be0041fa070020
:102344000001780001007800820178000001780023
:1023540003007800820078000000be00f8f807004f
:1023640010088800400037001e0178009e0190008c
:10237400001c2e0041c6240032fa07000001780038
:102384000100780082027800000278000200200038
:102394000328240005007800840078000000be00b3
:1023a40028fa070000017800010078008201780013
:1023b4000001780003007800820078000000be006d
:1023c400dff8070010088800270037001e01780096
:1023d4009e019000001c2e0041c6240019fa07003b
:1023e4000001780001007800820278000002780081
:1023f4000200200003102400050078008400780007
:102404000000be000ffa0700000178000100780008
:1024140082017800000178000300780082007800cf
:102424000000be00c6f80700100888000e00370040
:102434001e0178009e019000001c2e0041c624005d
:1024440000fa07000001780001007800820178009a
:102454000001780003007800820078000000be00cc
:10246400b7f8070010088800000000000080fa0098
:10247400000006000000fa001fe1a9001e21a900c7
:102484000368a9002368a8001fe1a8000000000059
:102494000080fa00000006000400fa00008fbe006d
:1024a400f00880000040a1000050a100f00888005e
:1024b4001e0178009e019000001c2e0041c62400dd
:1024c400e0f907000001780001007800820278003a
:1024d4000002780002f02f00f37724000500780052
:1024e400840078000000be0093f807000000e000bc
:1024f4008d003400f00880000040a0000050a100ce
:10250400f00888001e0178009e019000001c2e0037
:1025140041c62400cbf907000001780001007800cf
:1025240082027800000278000200200003102400d8
:1025340005007800840078000000be00c1f907009f
:10254400000178000100780082027800000278001f
:1025540002f02f00f377240005007800840078004f
:102564000000be0074f807000000e00055003400cd
:10257400f00880000040a1000050a000f00888008e
:102584001e0178009e019000001c2e0041c624000c
:10259400acf907000001780001007800820278009d
:1025a40000027800020020000328240005007800bf
:1025b400840078000000be00a2f907000001780042
:1025c40001007800820278000002780002f02f00f7
:1025d400f377240005007800840078000000be0032
:1025e40055f807000000e0001d003400f0088000ea
:1025f4000040a0000050a000f00888001e017800f0
:102604009e019000001c2e0041c624008df9070095
:10261400000178000100780082027800000278004e
:1026240002002000033824000500780084007800ac
:102634000000be0083f90700000178000100780063
:10264400820178000001780003007800820078009d
:102654000000be003af80700d008880040003700a8
:102664001e0178009e019000001c2e0041c624002b
:1026740074f90700000178000100780082027800f4
:1026840000027800020020000328240005007800de
:10269400840078000000be006af907000001780099
:1026a40001007800820178000001780003007800be
:1026b400820078000000be0021f80700d0088800de
:1026c400270037001e0178009e019000001c2e0098
:1026d40041c624005bf9070000017800010078007e
:1026e4008202780000027800020020000310240017
:1026f40005007800840078000000be0051f907004e
:10270400000178000100780082017800000178005f
:1027140003007800820078000000be0008f807007b
:10272400d00888000e0037001e0178009e0190003a
:10273400001c2e0041c6240042f907000001780065
:10274400010078008201780000017800030078001d
:10275400820078000000be00f9f70700d008880066
:10276400000000000080fa00000006000000fa00eb
:1027740002ccbf000000a1000010a1000020a100b5
:1027840002ecb700009620002060880010618000f1
:1027940000a0a00000b0a0001061880023cca80015
:1027a40023eca80030002000206188001062800023
:1027b40000a0a00000b0a0001062880043cca800d4
:1027c40043eca800300020002062880001eca8003f
:1027d400000000000080fa00000006000000fa007b
:1027e400889fbe000481800015818000e080800005
:1027f400f18080000001be000400be00ccf7070099
:102804000000e00014003d00e8808000f9808000b2
:102814000481800015818000208080003180800048
:102824000001be000400be0021f80700000178008a
:102834000100780082027800000278000801be00de
:1028440005007800840078000000be002301070022
:102854000081880011818800048180001581800036
:10286400e0808000f18080000001be000400be0012
:10287400b1f707000000e00014003400e880800095
:10288400f980800004818000158180002080800010
:10289400318080000001be000400be00fbf7070089
:1028a40000017800010078008202780000027800bc
:1028b4000801be0005007800840078000000be0016
:1028c400ef000700008188001181880000818000ea
:1028d400118180006011b80097f707000000e00044
:1028e4001e0035000081800011818000020020005c
:1028f400031c2400b2f907000001780001007800ed
:10290400820278000002780000808000118080003c
:102914000001be0005007800840078000000be00bd
:10292400e3f70700000178000100780082017800d5
:102934000001780003007800820078000000be00e7
:10294400a0f70700306288000080800011808000ba
:102954009cf70700706288001e003700008080002a
:102964001180800097f707003062880000818000a2
:102974001181800001f0a20002002000031c240049
:102984008ff90700000178000100780082027800c6
:102994000002780000808000118080000001be00e9
:1029a40005007800840078000000be00c0f707002e
:1029b40000017800010078008201780000017800ad
:1029c40003007800820078000000be007df7070055
:1029d40070628800c4808000d5808000a080800060
:1029e400b18080000001be000400be0050f7070063
:1029f4000000e00014003d00a8808000b980800041
:102a0400c4808000d58080002080800031808000d8
:102a14000001be000400be00a5f707000001780015
:102a24000100780082027800000278000801be00ec
:102a340005007800840078000000be00a7000700ad
:102a4400c0808800d1808800c4808000d580800048
:102a5400a0808000b18080000001be000400be00a0
:102a640035f707000000e00014003400a88080005f
:102a7400b9808000c4808000d580800020808000e0
:102a8400318080000001be000400be007ff7070013
:102a940000017800010078008202780000027800ca
:102aa4000801be0005007800840078000000be0024
:102ab40073000700c0808800d1808800c080800037
:102ac400d18080006011b8001bf707000000e0000f
:102ad4001e003400c0808000d180800002002000ed
:102ae400031c240036f90700000178000100780077
:102af400820278000002780000808000118080004b
:102b04000001be0005007800840078000000be00cb
:102b140067f707000001780001007800820178005f
:102b24000001780003007800820078000000be00f5
:102b340024f7070030618800008080001180800045
:102b440020f70700706188001e00370000808000b5
:102b5400118080001bf7070030618800c08080006e
:102b6400d180800001f0a20002002000031c240098
:102b740013f9070000017800010078008202780050
:102b84000002780000808000118080000001be00f7
:102b940005007800840078000000be0044f70700b8
:102ba40000017800010078008201780000017800bb
:102bb40003007800820078000000be0001f70700df
:102bc40070618800000000004f04be000080fa001d
:102bd400000006000600fa00008fbe0022079800dd
:102be4002e0090000000e00006003a001e0078006d
:102bf4009e00900001f0a200e0808800f18088002f
:102c0400070037002e009000e10f500004003a0046
:102c14001e0178009e019000a2808800b380880085
:102c2400000000000080fa00000006000400fa0022
:102c3400008fbe006011b8001e0078009e00900056
:102c4400bdf607000000e000030035001e00780018
:102c54009e009000030037001e0078009e00900044
:102c640001f0a200800178000101780003007800df
:102c7400820078000000be000080fa000000060018
:102c84000800fa00008fbe0022079800330798005e
:102c94002e019000be0190001e0078009e0090005e
:102ca400a5f607000000e000030034009e00780051
:102cb4001e00900002003700ae0090003e0090001d
:102cc4008101780000017800030078008200780018
:102cd4000000be000080fa00000006000800fa00b0
:102ce400008fbe0022079800330798002e01900041
:102cf400be0190001e0078009e0090008cf6070034
:102d04000000e00003003d009e0078001e009000db
:102d140002003700ae0090003e0090008101780070
:102d24000001780003007800820078000000be00f3
:102d34000080fa00000006000c00fa00008fbe00bc
:102d44002207980033079800440798005507980015
:102d54004e019000de0190001e0078009e0090005d
:102d640075f607000000e000040034004e019000f6
:102d7400de019000028fbe000a0037002e01900091
:102d8400be0190001e0078009e00900068f60700c7
:102d94000000e00003003d002e019000be01900001
:102da400028fbe009e0078001e0090008101780012
:102db4000001780003007800820078000000be0063
:102dc4000080fa00000006000400fa00008fbe0034
:102dd400b2fd2000930424001e0078009e009000a1
:102de40098f707000001780001007800820278005b
:102df400000278000200200043332400050078001c
:102e0400840078000000be006df80700000178001f
:102e140001007800820078008101780000017800c8
:102e240003007800820078000000be000080fa00f1
:102e3400000006000400fa00008fbe00b2fd20006e
:102e4400930424001e0078009e0090005cf80700a4
:102e54000001780001007800820278000002780006
:102e64000200200043332400050078008400780029
:102e74000000be0073f7070000017800010078002d
:102e84008200780081017800000178000300780056
:102e9400820078000000be000080fa0000000600f6
:102ea4000000fa0021e3a9002143a80000198000d2
:102eb4000080a1000090a100001988002043a9000f
:102ec400001980000050a0000060a0000070a00065
:102ed400001988001019800000d0a10000e0a100b2
:102ee40000f0a100101988002343a80010198000e5
:102ef4000080a1000090a100101988001119800021
:102f040030f82f00008060000040a00010198800f5
:102f14002203a9002223a90025e3a900f0c0b300dd
:102f240024e3b70021198000f00f2e008080600098
:102f340000f0200001007000201988003303a9006c
:102f44001e0ea8001f0ea8001f2ea8001f4ea800ca
:102f54001f6ea8003003a8003103a8003123a80085
:102f64003143a8003163a8004119800000fe2f00fe
:102f7400008060004019880028e3a90001a8a90086
:102f840021a8a80021e3a800000000000080fa00a6
:102f9400000006000000fa002023a8000000000042
:102fa4000080fa00000006000000fa0080032100ff
:102fb4000080fa00000006000000fa000fd0bf00f5
:102fc4000080fa00000006000000fa000f70ef0015
:102fd400000000000080fa00000006000000fa0073
:102fe400817420009140780000ccb30000c06000e0
:102ff4007041b30048e7b700313a800000e02f0089
:10300400808060008005200001007000303a880054
:10301400203a80000060a1000070a100203a8800de
:10302400213a800000fe2f00008060000000a00014
:10303400203a88001200200080072000a109200007
:1030440033742000804978008149780082497800ef
:10305400103a8000000178000200a0006004200003
:10306400710520002374200080497800814978008c
:103074008249780000000000103a80004c00de0015
:1030840067406000e14f5000fbff3a005927a80059
:10309400c03a80000000a0000010a1000020a100a0
:1030a400c03a88005ac7bf000000a0000010a0006a
:1030b4000020a0005ae7b700c03a80000050a100e9
:1030c4000060a0000070a000c03a880059a7a800c2
:1030d40059e7a80000000000c03a80004e00de005e
:1030e40061406000e14f5000fbff3a000000000027
:1030f400103a80004500de0061406000e14f50005e
:10310400fbff3a00000000000080fa000000060007
:103114000000fa000e2eef001e2eef003e2eef00f0
:103124002e2eef004e2eef006e2eef00808ea900a3
:1031340080cea90080aea900816ea900714ea900bd
:1031440091eea900000ea900012ea900014ea900cc
:10315400706ea9000e0007000300070000000000c5
:103164000080fa00000006000000fa00217420002c
:1031740062042000730520008248780083487800a8
:1031840042c7a800000000000080fa00000006000a
:103194000000fa002174200062042000730520005e
:1031a400824878008348780042c7a90000000000e4
:0831b4000080fa000000060093
:020000040000fa
:1031bc000c1000000200000080000000081000004d
:1031cc000400000080000000121000002600000027
:1031dc0080000000001000000800000082000000c9
:1031ec000000a00041000000a040000038100000ca
:1031fc000a000000800000000e1000000200000019
:10320c008000000010100000020000008000000090
:04321c0000000000ae
:020000040000fa
:0200000401f009
:04000800cfffff0027
:020000040000fa
:0200000401f009
:04000c00f9ffff00f9
:020000040000fa
:0200000401f009
:040010005bffff0093
:020000040000fa
:0200000401f009
:040014007fffff006b
:020000040000fa
:0200000401f009
:04001800cfffff0017
:020000040000fa
:0200000401f009
:04001c00deffff0004
:020000040000fa
:0200000401f009
:04002000cfffff000f
:00000001FF
