:020000040000fa
:080000001c02040000000000d6
:020000040000fa
:0400080024040000cc
:020000040000fa
:04000c0024040000c8
:020000040000fa
:0400100024040000c4
:020000040000fa
:0400140024040000c0
:020000040000fa
:0400180024040000bc
:020000040000fa
:04001c0024040000b8
:020000040000fa
:0400200024040000b4
:020000040000fa
:0400240024040000b0
:020000040000fa
:0400280024040000ac
:020000040000fa
:04002c0024040000a8
:020000040000fa
:0400300024040000a4
:020000040000fa
:0400340016030000af
:020000040000fa
:04003800240400009c
:020000040000fa
:04003c002404000098
:020000040000fa
:040040002404000094
:020000040000fa
:040044002404000090
:020000040000fa
:040048003803000079
:020000040000fa
:04004c002404000088
:020000040000fa
:040050002404000084
:020000040000fa
:04005400dc030000c9
:020000040000fa
:04005800b0030000f1
:020000040000fa
:04005c008a03000013
:020000040000fa
:040060002404000074
:020000040000fa
:040064002404000070
:020000040000fa
:04006800240400006c
:020000040000fa
:04006c002404000068
:020000040000fa
:040070002404000064
:020000040000fa
:040074002404000060
:020000040000fa
:04007800240400005c
:020000040000fa
:04007c002404000058
:020000040000fa
:040080002404000054
:020000040000fa
:040084002404000050
:020000040000fa
:04008800240400004c
:020000040000fa
:04008c002404000048
:020000040000fa
:040090002404000044
:020000040000fa
:04009400580300000d
:020000040000fa
:04009800240400003c
:020000040000fa
:04009c002404000038
:020000040000fa
:0400a0002404000034
:020000040000fa
:0400a4002404000030
:020000040000fa
:0400a800240400002c
:020000040000fa
:0400ac002404000028
:020000040000fa
:0400b0002404000024
:020000040000fa
:0400b4002404000020
:020000040000fa
:0400b800240400001c
:020000040000fa
:0400bc002404000018
:020000040000fa
:0400c0002404000014
:020000040000fa
:0400c4002404000010
:020000040000fa
:0400c800240400000c
:020000040000fa
:0400cc002404000008
:020000040000fa
:0400d0002404000004
:020000040000fa
:0400d4002404000000
:020000040000fa
:0400d80024040000fc
:020000040000fa
:0400dc0024040000f8
:020000040000fa
:0400e00024040000f4
:020000040000fa
:0400e40024040000f0
:020000040000fa
:0400e80024040000ec
:020000040000fa
:0400ec0024040000e8
:020000040000fa
:0400f00024040000e4
:020000040000fa
:0400f40024040000e0
:020000040000fa
:0400f80024040000dc
:020000040000fa
:0400fc0024040000d8
:020000040000fa
:0401000024040000d3
:020000040000fa
:0401040024040000cf
:020000040000fa
:0401080024040000cb
:020000040000fa
:04010c0024040000c7
:020000040000fa
:0401100024040000c3
:020000040000fa
:0401140024040000bf
:020000040000fa
:0401180024040000bb
:020000040000fa
:04011c0024040000b7
:020000040000fa
:0401200024040000b3
:020000040000fa
:0401240024040000af
:020000040000fa
:0401280024040000ab
:020000040000fa
:04012c0024040000a7
:020000040000fa
:0401300024040000a3
:020000040000fa
:04013400240400009f
:020000040000fa
:04013800240400009b
:020000040000fa
:04013c002404000097
:020000040000fa
:040140002404000093
:020000040000fa
:04014400240400008f
:020000040000fa
:04014800240400008b
:020000040000fa
:04014c002404000087
:020000040000fa
:040150002404000083
:020000040000fa
:04015400240400007f
:020000040000fa
:04015800240400007b
:020000040000fa
:04015c002404000077
:020000040000fa
:040160002404000073
:020000040000fa
:04016400240400006f
:020000040000fa
:04016800240400006b
:020000040000fa
:04016c002404000067
:020000040000fa
:040170002404000063
:020000040000fa
:04017400240400005f
:020000040000fa
:04017800240400005b
:020000040000fa
:04017c002404000057
:020000040000fa
:040180002404000053
:020000040000fa
:04018400240400004f
:020000040000fa
:04018800240400004b
:020000040000fa
:04018c002404000047
:020000040000fa
:040190002404000043
:020000040000fa
:04019400240400003f
:020000040000fa
:04019800240400003b
:020000040000fa
:04019c002404000037
:020000040000fa
:0401a0002404000033
:020000040000fa
:0401a400240400002f
:020000040000fa
:0401a800240400002b
:020000040000fa
:0401ac002404000027
:020000040000fa
:0401b0002404000023
:020000040000fa
:0401b400240400001f
:020000040000fa
:0401b800240400001b
:020000040000fa
:0401bc002404000017
:020000040000fa
:0401c0002404000013
:020000040000fa
:0401c400240400000f
:020000040000fa
:0401c800240400000b
:020000040000fa
:0401cc002404000007
:020000040000fa
:0401d0002404000003
:020000040000fa
:0401d40024040000ff
:020000040000fa
:0401d80024040000fb
:020000040000fa
:0401dc0024040000f7
:020000040000fa
:0401e00024040000f3
:020000040000fa
:0401e40024040000ef
:020000040000fa
:0401e80024040000eb
:020000040000fa
:0401ec0024040000e7
:020000040000fa
:0401f00024040000e3
:020000040000fa
:0401f40024040000df
:020000040000fa
:0401f80024040000db
:020000040000fa
:0401fc0024040000d7
:020000040000fa
:0402000024040000d2
:020000040000fa
:0402040024040000ce
:020000040000fa
:0402080024040000ca
:020000040000fa
:04020c0024040000c6
:020000040000fa
:0402100024040000c2
:020000040000fa
:0402140024040000be
:020000040000fa
:0402180024040000ba
:020000040000fa
:04021c0024040000b6
:020000040000fa
:0402200024040000b2
:020000040000fa
:0402240024040000ae
:020000040000fa
:0402280024040000aa
:020000040000fa
:04022c0024040000a6
:020000040000fa
:0402300024040000a2
:020000040000fa
:04023400240400009e
:020000040000fa
:04023800240400009a
:020000040000fa
:04023c002404000096
:020000040000fa
:040240002404000092
:020000040000fa
:04024400240400008e
:020000040000fa
:04024800240400008a
:020000040000fa
:04024c002404000086
:020000040000fa
:040250002404000082
:020000040000fa
:04025400240400007e
:020000040000fa
:04025800240400007a
:020000040000fa
:04025c002404000076
:020000040000fa
:040260002404000072
:020000040000fa
:04026400240400006e
:020000040000fa
:10040000f03fb1000180b10006003500ee030900a5
:1004100000000000403fb1000180b100fbff3d0043
:100420001000b000203fb00002003500008009003d
:1004300000000000000006004f1e21000eff2700f4
:100440000e01880000000000000020000000e00015
:100450000200320000012000200288001400070082
:10046000fb0007000000e00003003a00e0c72100a5
:1004700001002000020037000000200001002000e1
:10048000810f7000010032000f0007000000200003
:100490000000e00002003200000002000000000046
:1004a000c6140200000000000040da000000fe0058
:1004b000200020000000e0000200320010002000b8
:1004c0009001880000000600a102880080047800e6
:1004d0000000eb001f003700e284440054a0b40089
:1004e0009905ba00e284440054a0b4009906ba0009
:1004f000e284440054a0b4000006eb00476fde0025
:10050000fd07b200ae018800636ce10003003a0011
:100510000ad801000000eb000e003700606ce1001b
:1005200008003a00004deb000a05e800020039001f
:100530003420ec000af0a0008b05e900f9ff3e0032
:10054000040037006168e100010032000086eb0022
:100550000b00070019c7ba000e04e0001905ba0025
:1005600003003a000a00e000dbff3a00000006004a
:10057000fe07b200ae0288008a047800f5ff37005b
:100580000cd0a300e20f4d001c003b008902780054
:10059000354dba000a05e800020039003420ec00ad
:1005a0000af0a0008b05e9000f003200254dba00cb
:1005b0000a05e800020039003420ec000af0a0002f
:1005c0008b05e900080032000c00e0000600320054
:1005d00015cdba000a05e800020039003420ec000d
:1005e0000af0a0008b05e9008984e80054a0b4005b
:1005f0000b00e000e2ff3a00000006009902ba009a
:10060000055d78008b05e900f7ff3200c82ade009f
:10061000055d78008b05e900f3ff32000c00e00077
:10062000f1ff320019ddba00eeff37003600f800a6
:10063000809fbe00829fbe00849fbe00869fbe003a
:100640000000fa000068a900980b070032090700b3
:10065000000000000080fa004f03be004f02be0001
:100660004f01be004f00be003600f90000400600fa
:100670003600f800809fbe00829fbe00849fbe00af
:10068000869fbe000000fa000108a90022090700a9
:10069000000000000080fa004f03be004f02be00c1
:1006a0004f01be004f00be003600f90000400600ba
:1006b000809fbe00829fbe000000fa000368a90070
:1006c0005280800063808000100020000100200024
:1006d00002004000838048005080880061808800cc
:1006e00072808000838080001000200001002000c4
:1006f000020040008380480070808800818088006c
:10070000000000000080fa004f01be004f00be0054
:1007100000400600801f78000000fa0001a8a90030
:1007200000188000d08e880010188000e08e8800ad
:1007300020188000f08e880030188000008f88001c
:1007400040188000108f880010c0b30031f0b7004f
:10075000000000000080fa004f0078000040060012
:100760003600f800809fbe00829fbe00849fbe00be
:10077000869fbe000000fa000188a9002181800048
:1007800010818000808f500002003200e00a0700d4
:10079000010037002670ef00000000000080fa0022
:1007a0004f03be004f02be004f01be004f00be000f
:1007b0003600f900004006003600f800809fbe00b9
:1007c000829fbe00849fbe00869fbe000000fa008c
:1007d0000168a900101180004200de006140600045
:1007e000e14f500001003a002242a90010118000a0
:1007f0000000d10061406000e14f500005003a0068
:100800002222a90003003700301180000040780048
:10081000850b0700101180000040780061406000e7
:10082000e14f5000f8ff3200000000000080fa00a5
:100830004f03be004f02be004f01be004f00be007e
:100840003600f900004006000040da000000fe001b
:100850000000050014002000aa033700f4ff2f0059
:10086000a80337000001be003c0007000470a70089
:1008700003f0a1006509b100160032000d0035003b
:100880006828e10006003500f0ff2f00f1ff270087
:100890000300e00013003b000100280000000500f9
:1008a00000004000818048008502e900fcff3a001a
:1008b00008003700f88f420002003c008000eb0087
:1008c000000005008100d1000080d3008502e8000f
:1008d000fcff3a000300e00002003b006000100053
:1008e000e0801800000006000001be001b000700a9
:1008f0000470a70003f0a10003f8a30013003a005e
:100900006509b10010003200090035006928e100d6
:100910000200350001002800000005000000400032
:10092000818048008502e900fcff3a0000000600d3
:10093000f88f4200050035008100d1000080d3000f
:100940008502e800fcff3a00000006008000eb0092
:10095000000005006011b80085033700c70ade00fb
:10096000f107b200f50fb20008003200e1cf4200fb
:10097000020032000170a00024000500810f700009
:10098000010032000408050044000500810f7000da
:1009900002003a00140005008502e9000000400052
:1009a00081c04800fcff3b000170a000240005004e
:1009b00007f82700078361000638e10004003a00c9
:1009c000f7072000878361008703710001003a0068
:1009d00003f0a200889fbe008a9fbe008c9fbe00cd
:1009e000470ade000480a100c71ade000580a100ce
:1009f000070028000785600087856100f70f200049
:100a00000720e1009e0032000728e1009c00320030
:100a1000010678000400e000b4003200f70720006f
:100a2000878060000170a0000500e000c000320077
:100a3000f7072000878161000370a00005065200bf
:100a40000f003a000b50e1000b0032000308e100f8
:100a500002003a000200e1007e0032000204500071
:100a600083845800040031000001fd008101fd0075
:100a70008402fd008a05fd006044b80021003700b3
:100a80000520e10005003d000001fd008101fd00a1
:100a90008402fd008a05fd00050652007a60e1002f
:100aa000050035000170a1004722dd008480700040
:100ab0008a807000630037006044b800ef0266006f
:100ac00007ff2f00070666000500e000060034005f
:100ad000f08312008714dd000511de00071bdd0026
:100ae000060171008519de007060e1000500350027
:100af0000904780082047800030178008001eb008b
:100b0000700656000b50e10003003a00020040005e
:100b1000838048000400370060041400e0841c0057
:100b200002005800838058000188a30006003200ac
:100b30008100d1000080d3008984d3000884d300d1
:100b40000402e800270037000178a30025003a00de
:100b50000100e000030032008186cf006986560064
:100b60000a0037008c0020000000e00004003a007a
:100b700009007800880478000004eb00700252003d
:100b80008086cf000d0646000c06e9007060e1008b
:100b9000060035008000780009007800880478009d
:100ba0000004eb0070065600700252000c00e000da
:100bb0000c0034008c08dd00f00316000703de0093
:100bc000868070000c00dd00074bde000600700020
:100bd0008c4cdd000743de00868474000c44dd008d
:100be0000c0252006120e10020003500610160002c
:100bf0000700280087816400f7ff270087836400cf
:100c0000070374000300e000060032008203730053
:100c1000040032000000e800e08048000188a300e2
:100c20000e003a00f70f20000720e1004a003d00c7
:100c30000170a1004722dd00810072008a807000ef
:100c40000000be004f06be004f05be004f04be00b0
:100c5000000006006000b800faff37008100d100f4
:100c60000080d3000402e800eeff370004017800a2
:100c700089017400a10107008a807000f1ff37002c
:100c8000f7010700070278000001fd008101fd0067
:100c9000f301070087027800850372000778a3003c
:100ca000040032000001fd008101fd000602070082
:100cb000e4ff3700850362000768a30008003200e4
:100cc0000b50e10003003200f0ff2f00f1ff27007e
:100cd000dcff37000001fd008101fd00d9ff370076
:100ce0000468a300d7ff3200faff3700f8ff27009f
:100cf000888360000b003a000000e00009003a0021
:100d00008303640082837300020032000200be008d
:100d1000ccff37000b50e100ceff3a000200be00ce
:100d2000c8ff370014002000810064003eff370038
:100d3000f8ff27008883610004003a000200e00009
:100d400002003a008c007800beff3700150020003a
:100d50008301640039ff370001f8270000002000fc
:100d600081007500b7ff3700889fbe008a9fbe00d4
:100d70008c9fbe001b0020000202be00058668009a
:100d800006002800060666004709de00f20fb200e2
:100d9000820032000243e80080003200c729de00f2
:100da000f30fb2007d0032000343e8007b00320005
:100db000f107b2000170a000f507b2000570a000b5
:100dc000c708dd004903de00868070004700dd00b3
:100dd000c72add004923de00868272004722dd003b
:100de00003055100040350008583580003003100bf
:100df00000004000818048000a05e9008c1f78004f
:100e00008a9fbe0004005000858058000402420002
:100e100085824a0000004000818048000005eb0008
:100e20000004be006033b8000406be000d48e100b7
:100e300056003100110009004dccd8000c01b8005b
:100e40000d02b8008481410060824a008283530011
:100e500003045c0084845c0060055d000a00e0001f
:100e600025003a00800578000d40e100490031007e
:100e70008800780007007800110009004d88d8002c
:100e80000c01b8000d02b8008481410060824a0064
:100e90006003110083835b0004045c00e0845c0059
:100ea0000900e00021003a004f01be000300e0000d
:100eb0002b003200e3016000070673008c81710093
:100ec00001003200640070004200de004e5edd0072
:100ed0000c007000c258de0001e0a0008301070092
:100ee000cf017800818071004f06be004f05be0023
:100ef0004f04be00000006008c8343000d044c002c
:100f0000e0844c0060054d000000e9000a00e000ac
:100f1000d4ff32008c8343000d044c00e0844c006d
:100f200060054d000000e900ceff37000c034300d0
:100f30008d834b0060044c00e0844c000000e9000d
:100f40000900e000d8ff32000c0343008d834b0002
:100f500060044c00e0844c000000e900d2ff370040
:100f60004200de004e5edd000c007000c258de0064
:100f700001e0a000cf0178000300e000daff3200ba
:100f800060001000e0801800d7ff3700f0ff2f004e
:100f9000aaff3700f0ff2f00b9ff37000404be009e
:100fa0002f010700870678000004fd008104fd0082
:100fb0002b010700078366000678a30003003200b8
:100fc0000960a7000800be002c0037000d78a300c0
:100fd000020032000800be00280037000778a30096
:100fe00026003a0001f0a10009f0a1000668a30064
:100ff00003003200f1ff2700f0ff2f00baff370097
:101000000d68a300030032000800be008c80700051
:10101000b5ff37000768a30007003a000648a300a1
:1010200003003200f1ff2700f0ff2f00aeff370072
:101030000d48a300030032006000b8008c807000ef
:10104000a9ff37000748a3000400320001f8270079
:10105000000020008c807000a3ff3700760107009d
:101060000004fd008104fd00020578007201070004
:101070000802be008a01780059ff37000160a00015
:10108000120220009281880097ff37000100e000e3
:10109000120032000500e00010003200889fbe0000
:1010a0008a9fbe008c9fbe000006eb0001f8a300e3
:1010b0000300320060001000e08018000cf0a00077
:1010c00005f8a3000300320060021200e0821a005b
:1010d0000cf0a2008005eb0041ff37006000b80073
:1010e000020005000383680007002800070363006f
:1010f000470ade000480a100c71ade000580a100b7
:10110000f70f20000720e100420032000728e1002d
:1011100040003200889fbe008a9fbe008c1f78006e
:10112000f107b200f307b2000400e00064003200ef
:101130000170a0000500e000680032000370a0000c
:1011400085054200eb07b1000204b8000302b800b5
:101150008484440060854a00020ab8008484440004
:101160000a854a00030ab80004054500040033005c
:101170000804d0008984d2000a85d2008b05e900da
:101180006158e1003d0035000210200009016100b6
:101190000308200089816100f7072000878364002d
:1011a00008867300c84cde00c853dd0087847400d5
:1011b0004855de000300e00006003200820376009e
:1011c000040032008904e80060054d000a88a3008d
:1011d0000c003a00f70f20000758e10044003d00e2
:1011e0000a70a100c75ddd000a8575008a007300e2
:1011f000090078004f0678004f05be004f04be007e
:10120000000006000a05d1008984d3008b05e800a0
:10121000f0ff3700881f7800060478009000070070
:10122000070278000001fd008101fd008c0007002d
:1012300087027800850372000778a300050032005a
:101240000001fd008101fd009f0007004f047800b0
:1012500000000600850372000748a3000300320067
:10126000f0ff2f00f1ff2700f8ff370000002000fb
:1012700001f8270088807000f4ff370088017800ab
:101280004848dd00808171004848de00c850dd001c
:1012900001007000c850de00060478000b017800e1
:1012a0001600070088807000d2ff37000500e000bc
:1012b00005003200170020003a0007009dff3700ac
:1012c00081037000f9ff3a00860078004f0678002d
:1012d0004f05be004f04be000000050083037100ef
:1012e000f9ff3200270020002e00070094ff37008e
:1012f00001f8270086807000f4ff37000100e0004d
:1013000026003200610111007810e10023003c004a
:101310006022b8007010e1000400350080027800ff
:10132000010078008000eb00700151000200e00035
:101330000900340070031100062add00822ade0055
:101340008603dd00878272000200de00860bdd006e
:10135000070070008208de0084817100f4ff27001e
:10136000048262008481710004002800848262008b
:101370006102600005f0a600000006000482710012
:10138000070032000000e800e0804800000006008e
:101390000002be006000b800efff37006000b80038
:1013a00000000600889fbe000004eb006138e100e9
:1013b00016003a000100e00008003a00c800de0014
:1013c0004800dd00880020000100e00003003a0032
:1013d000c800de004800dd00680444008184cf00be
:1013e000e9845400060034008908dd00f08314000d
:1013f0008703de00878070000900dd0009044400d7
:10140000610214004f04be00000006000300e0006b
:1014100008003a00c811de004811dd0088002000f5
:101420000300e00003003a00c811de004811dd00af
:10143000680444008384cf00e9845400060034002b
:101440008919dd00f08314008713de0087817100a5
:101450000911dd0009044400e1021400e9ff37002e
:101460002700200001f0a70017002000470bde0036
:10147000f60fb200040032000643e8000a00320012
:101480004702b3000000060001037800f607b2002f
:101490000603700002003a000703b30000000600d4
:1014a0008702b3000000060001037800f607b200cf
:1014b00006037000020032000770a0000000060062
:1014c0000760a000000006000478a30004003200ba
:1014d0000578a300030032000168a30001003a0070
:1014e0000200be000160a000000006008101700043
:1014f000270032008002eb0001f8a3000300320055
:1015000060001000e080180015002000f4072000a3
:101510000202420020003400f7032000870360002d
:10152000060420000003630002082000000161009f
:101530004700de00c909dd0000807100c708de0039
:101540000600e00008003200870371000600320048
:101550001000b0000180b0000188a300020032003a
:10156000c108de000402e800f107b200f30f20001a
:101570000320e10003003d004722dd0081007200ee
:101580002900370001f827000000eb002600370093
:101590006000b80000000600680212007f20e10031
:1015a000020034006000b8001f0037006011b8006e
:1015b0007020e1000400350080017800010078000f
:1015c0008000eb00700252000400e00009003400cb
:1015d000f00312000719dd008419de000703dd00a7
:1015e000868171000400de00070bdd00060070003c
:1015f0008408de00f7ff2700838363008703710000
:101600000600280003036300070032000700e00023
:1016100003003a00610160000281730002003200a1
:101620001000b0000180b0000500a6000000060018
:1016300001f0a000000006004f0ade004709de00ae
:10164000f107b200f20fb2000b003200f207b10056
:101650000170a000c708dd00c901de0083807000b2
:101660004700dd000400a600000006006000100036
:10167000e080180000000600810f700001003a00b1
:10168000000006008182cf000500e00010003e004f
:101690008082cf00ee8242007028e1000400390011
:1016a00007003e00800078000000eb000e003700cd
:1016b000708312008600de000500dd000a0037009e
:1016c000708352008600dd000000eb00060037004a
:1016d000e28252008508dd00708312000603de00fe
:1016e000868070000500dd007507b0000501ea0086
:1016f0000400a6000000060060001000e080180052
:1017000000000600889fbe008a9fbe00841f7800ec
:101710006c0007004f00780011003300f0ff2f002d
:10172000838f6c0006003b00040565000a00a700db
:101730000800370009f0a60010002000080037005c
:10174000820f5400838f5c000300390010002000da
:1017500001003e000000200009f0a7000000ea00a0
:101760004f05be004f04be000000e0000000060070
:10177000889fbe008a9fbe00008270000402710034
:1017800004827100260032000004be000200be0088
:101790006011b8006b092000950220000182cf0083
:1017a0000a0039000541b1000082cf00070039006e
:1017b0000541b1000982cf00040039000541b100a4
:1017c0000882cf00010039000541b10005425200f6
:1017d000120032000a003b00828171006101640046
:1017e0008100d1000080d3008984d3000884d30015
:1017f0008b05e8000442e800f7ff3a0007003700d5
:101800000804440089844c0000004800818048009e
:101810008b05e9000442e900f9ff3a0003000700e4
:101820004f05be004f04be000000060081002000ee
:10183000618055000b003d000b00200061fe2f0071
:101840000100e1001d00340082817100610164002b
:101850008904d1000884d3000000e800faff3a00b0
:10186000710020006100640003007000020060004d
:101870000900320061044400e0844c000988a5009e
:10188000050032008b05e8006808e10002003a001c
:101890008904d1000884d300f20f20000258e1002f
:1018a00005003d00c75ddd00f907b20089807500c5
:1018b00008007800000006000bf827008b00780075
:1018c000000005000004be0024fc07000003be0069
:1018d0000405be000200be0020fc0700844f750016
:0418e00000000600fe
:020000040000fa
:1018e4000000fa0005e1a9000421a9000068a9008c
:1018f4002068a80005e1a80000002000a12a240017
:101904001d000700000000000080fa00000006002f
:101914000000fa0013e1a90011e1a9001061a80078
:101924001021a900800880000040a1000050a100ff
:10193400800888000a21ef000621ef0030392000da
:101944007008880000702800600888002042800029
:101954000000a0000010a1000020a1002042880087
:101964000108a9002108a80011e1a8000000000056
:101974000080fa00000006000400fa00008fbe0098
:10198400200880000040a0000050a100200888002a
:101994001e0178009e019000001c2e0041c6240008
:1019a400f0fc070000017800010078008202780052
:1019b4000002780002f02f00f3772400050078007d
:1019c400840078000000be00a3fb07000000e000d4
:1019d4008d003400200880000040a0000050a100c9
:1019e400200888001e0178009e019000001c2e0033
:1019f40041c62400dbfc07000001780001007800e8
:101a04008202780000027800020020000310240003
:101a140005007800840078000000be00d1fc0700b7
:101a2400000178000100780082027800000278004a
:101a340002f02f00f377240005007800840078007a
:101a44000000be0084fb07000000e00055003400e5
:101a5400200880000040a1000050a0002008880059
:101a64001e0178009e019000001c2e0041c6240037
:101a7400bcfc0700000178000100780082027800b5
:101a840000027800020020000328240005007800ea
:101a9400840078000000be00b2fc0700000178005a
:101aa40001007800820278000002780002f02f0022
:101ab400f377240005007800840078000000be005d
:101ac40065fb07000000e0001d00340020088000d2
:101ad4000040a0000050a000200888001e017800eb
:101ae4009e019000001c2e0041c624009dfc0700ae
:101af400000178000100780082027800000278007a
:101b040002002000033824000500780084007800d7
:101b14000000be0093fc070000017800010078007b
:101b240082017800000178000300780082007800c8
:101b34000000be004afb0700100888004000370080
:101b44001e0178009e019000001c2e0041c6240056
:101b540084fc07000001780001007800820278000c
:101b64000002780002002000032824000500780009
:101b7400840078000000be007afc070000017800b1
:101b840001007800820178000001780003007800e9
:101b9400820078000000be0031fb070010088800b6
:101ba400270037001e0178009e019000001c2e00c3
:101bb40041c624006bfc0700000178000100780096
:101bc4008202780000027800020020000310240042
:101bd40005007800840078000000be0061fc070066
:101be400000178000100780082017800000178008b
:101bf40003007800820078000000be0018fb070094
:101c0400100888000e0037001e0178009e01900025
:101c1400001c2e0041c6240052fc0700000178007d
:101c24000100780082017800000178000300780048
:101c3400820078000000be0009fb0700100888003d
:101c4400000000000080fa00000006000000fa0016
:101c54001fe1a9001e21a9000368a9002368a800a8
:101c64001fe1a800000000000080fa000000060048
:101c74000400fa00008fbe00f00880000040a100bc
:101c84000050a100f00888001e0178009e01900019
:101c9400001c2e0041c6240032fc0700000178001d
:101ca40001007800820278000002780002f02f0020
:101cb400f377240005007800840078000000be005b
:101cc400e5fa07000000e0008d003400f008800011
:101cd4000040a0000050a100f00888001e01780018
:101ce4009e019000001c2e0041c624001dfc07002c
:101cf4000001780001007800820278000002780078
:101d040002002000031024000500780084007800fd
:101d14000000be0013fc07000001780001007800f9
:101d2400820278000002780002f02f00f37724008a
:101d340005007800840078000000be00c6fa0700a1
:101d44000000e00055003400f00880000040a100cd
:101d54000050a000f00888001e0178009e01900049
:101d6400001c2e0041c62400fefb07000001780081
:101d7400010078008202780000027800020020004e
:101d84000328240005007800840078000000be00c9
:101d9400f4fb07000001780001007800820278005b
:101da4000002780002f02f00f37724000500780089
:101db400840078000000be00a7fa07000000e000dd
:101dc4001d003400f00880000040a0000050a00076
:101dd400f00888001e0178009e019000001c2e006f
:101de40041c62400dffb07000001780001007800f1
:101df40082027800000278000200200003382400e8
:101e040005007800840078000000be00d5fb0700c0
:101e14000001780001007800820178000001780058
:101e240003007800820078000000be008cfa0700ee
:101e3400d0088800400037001e0178009e01900001
:101e4400001c2e0041c62400c6fb070000017800d8
:101e5400010078008202780000027800020020006d
:101e64000328240005007800840078000000be00e8
:101e7400bcfb0700000178000100780082017800b3
:101e84000001780003007800820078000000be00a2
:101e940073fa0700d0088800270037001e01780075
:101ea4009e019000001c2e0041c62400adfb0700db
:101eb40000017800010078008202780000027800b6
:101ec400020020000310240005007800840078003c
:101ed4000000be00a3fb07000001780001007800a9
:101ee4008201780000017800030078008200780005
:101ef4000000be005afa0700d00888000e00370020
:101f04001e0178009e019000001c2e0041c6240092
:101f140094fb07000001780001007800820178003a
:101f24000001780003007800820078000000be0001
:101f34004bfa0700d0088800000000000080fa0077
:101f4400000006000600fa00a07380004300de00d3
:101f540061406000004f7800207080004900de007e
:101f640061406000104798002070800000407800b5
:101f74006140600020479800a07480004f00de009c
:101f84000040780030479800207080004a00de004e
:101f940061406000404798000e0178005100200025
:101fa4000002200003000700000000000080fa0087
:101fb400000006001000fa00889fbe005007980039
:101fc40061079800720798000f0478000f007800ea
:101fd400800478006c0047006100200010804000fd
:101fe4008000e900210798000000e8000000d1000b
:101ff400800040000f0078008187470060004000a7
:10200400300798000000eb00100798009e00900035
:102014000e80e8000108e80010017800120798001b
:102024003e00900001004000e1cfb3000148780079
:102034005e009000c880de001e0190000e80e80063
:102044000208e800900178001307980081407800a6
:102054003e00900002004000014878009e0090007d
:102064000e80e8000108e8001001780012079800cb
:102074005e009000004178003e00900001004000a6
:10208400024878006e009000c880de001e019000b7
:102094000e80e8000208e800900178001307980019
:1020a400814078003e009000020040000148780022
:1020b4009e0090000e80e8000108e80010017800fe
:1020c400120798006e009000004178003e009000d6
:1020d40001004000024878000000eb00000f780087
:1020e4000d0037001e007800ee004700910040000c
:1020f4001e0190000e80e8000208e80090017800bc
:1021040013079800914078003e00900002004000c0
:10211400014878001e0fe8006e0090009e007800d1
:10212400808f5000efff35007e019000ee0090009c
:102134005e00900013000700004f98009e0090007e
:102144000e80e8000108e8001001780012079800ea
:102154000e4990003e0090000100400002487800c3
:102164003e0090009e0090001b0407008907780041
:1021740000000000880778004f04be000080fa00c9
:10218400000006000a00fa002007980031079800b2
:10219400420798000040eb00004f78009e40780012
:1021a400e0cfb30000c06800004f78002e0090001c
:1021b4004880de00804078001e40780000c068003f
:1021c400004f78002e009000804078001e40780078
:1021d40000c06800004f78003e0090004880de0098
:1021e400804078001e40780000c06800004f7800ee
:1021f4003e009000804078001e40780000c06800d7
:10220400004f78000000eb00100798000c00370026
:102214001e009000e80047001100400010407800c4
:102224009e40780000c06800004f78000e80e800ef
:102234008e80e8001108e8009000780011079800eb
:102244009e0090003e009000808f5000f0ff35000b
:102254001e4078000080fa00000006000400fa0026
:102264002047980000818000e30f500023003200d3
:10227400e30f500005003e00e10f50001000320053
:10228400e10f500015003e0007003700e50f500035
:1022940036003200e50f50001f003900e60f5000f1
:1022a40040003200500037002e409000e24f4000c2
:1022b4004f003a0010002000008188004c003700d5
:1022c4000e80e8001080fb004800dd00d08088000c
:1022d4002000200000818800480037000e80e800bc
:1022e4001080fb00d180800000807000d0808800c6
:1022f4003000200000818800400037000e80e80094
:102304001080fb004800dd00e080880040002000d1
:1023140000818800390037000e80e8001080fb003f
:10232400e180800000807000e0808800e18080000f
:1023340000082000808f5000020034002030ef009d
:102344002e003700e08080000000e000040034002c
:102354001e30ef0050002000008188002700370065
:10236400600020000081880024003700f180800094
:102374000100e800f08088004013210001004000c3
:10238400ae40900001487800f1808000e080800039
:10239400808f500018003500600020000081880004
:1023a40015003700ae409000014f7800e1808000b6
:1023b400d08080004213210072ff0700104798006c
:1023c4001e4090009e40780080cf500004003a00e8
:1023d400e1808000d0808000421321000a000700c1
:1023e4002030ef00050037002030ef0003003700f5
:1023f40000000000010037000000000000000000a1
:102404000080fa00000006000800fa001007980097
:1024140021079800320798009e00900000032000d6
:10242400808f5000560032009e009000000420006f
:10243400808f5000540032009e0090000002200063
:10244400808f500001003200520037003e0090009f
:10245400104078000080fb00000f78001e00780018
:102464000000e0000c003a00660047001000e8009d
:1024740010407800614060000080fb006100600053
:102484004300dd00a17380000130a1000100700051
:10249400a07388003e0037001e007800e10f500052
:1024a4000c003a00660047001000e8001040780075
:1024b400614060000080fb00610060004900dd00b5
:1024c400217080000190a10001007000207088003c
:1024d4002f0037001e007800e20f50000b003a0076
:1024e400660047001000e80010407800614060007a
:1024f4000080fb0061006000217080000100a100e9
:102504000100700020708800210037001e00780050
:10251400e30f50000b003a00660047001000e8008b
:1025240010407800614060000080fb004f00dd0037
:10253400a174800001f0a10001007000a074880063
:10254400130037001e007800e40f500010003a001a
:10255400660047001000e800104078006140600009
:102564000080fb00610060004a00dd0021708000f3
:1025740001a0a10001007000207088000400370051
:1025840000000000030037000000000001003700d5
:1025940000000000000000000080fa0000000600b7
:1025a4000600fa00889fbe00c8030700e14f5000f0
:1025b400f1003a00c9030700c0030700000f7800c8
:1025c4001e007800100078008000eb00e0f807009f
:1025d4003233230033052400c1fa070000017800d8
:1025e40001007800820278000002780002002000d6
:1025f4000358240005007800840078000000be0021
:10260400d8f9070010079800210798004881800036
:10261400598180001e019000ae019000000020004e
:1026240081202400cff90700000178000100780020
:10263400820278000002780002002000030a2400cd
:1026440005007800840078000000be00d7f8070079
:10265400000178000100780082027800000278000e
:102664000801be0005007800840078000000be0068
:1026740068020700b08e8800c18e88001e80e800c2
:10268400100078008000eb00b1f80700323323001b
:102694003305240092fa0700000178000100780055
:1026a400820278000002780002002000035824000f
:1026b40005007800840078000000be00a9f9070036
:1026c40010079800210798004881800059818000f4
:1026d4001e019000ae019000000020008120240023
:1026e400a0f9070000017800010078008202780058
:1026f4000002780002002000030a2400050078008c
:10270400840078000000be00a8f8070000017800eb
:102714000100780082027800000278000801be00ff
:1027240005007800840078000000be00390207002c
:10273400508e8800618e8800410020001e80400079
:10274400100078008000eb0081f80700323323008a
:102754003305240062fa07000001780001007800c4
:10276400820278000002780002002000035824004e
:1027740005007800840078000000be0079f90700a5
:102784001007980021079800488180005981800033
:102794001e019000ae019000000020008120240062
:1027a40070f90700000178000100780082027800c7
:1027b4000002780002002000030a240005007800cb
:1027c400840078000000be0078f80700000178005b
:1027d4000100780082027800000278000801be003f
:1027e40005007800840078000000be00090207009c
:1027f400308e8800418e8800610020001e804000d9
:10280400100078008000eb0051f8070032332300f9
:102814003305240032fa0700000178000100780033
:10282400820278000002780002002000035824008d
:1028340005007800840078000000be0049f9070014
:102844001007980021079800488180005981800072
:102854001e019000ae0190000000200081202400a1
:1028640040f9070000017800010078008202780036
:102874000002780002002000030a2400050078000a
:10288400840078000000be0048f8070000017800ca
:102894000100780082027800000278000801be007e
:1028a40005007800840078000000be00d90107000c
:1028b400708e8800818e8800810020001e80400078
:1028c400100078008000eb0021f807003233230069
:1028d4003305240002fa07000001780001007800a3
:1028e40082027800000278000200200003582400cd
:1028f40005007800840078000000be0019f9070084
:1029040010079800210798004881800059818000b1
:102914001e019000ae0190000000200081202400e0
:1029240010f90700000178000100780082027800a5
:102934000002780002002000030a24000500780049
:10294400840078000000be0018f807000001780039
:102954000100780082027800000278000801be00bd
:1029640005007800840078000000be00a90107007b
:10297400908e8800a18e8800000000004f04be00e5
:102984000080fa00000006000000fa00d8020700e8
:10299400a4030700d2fb0700acfc0700dcfb070024
:1029a40040000700830207006503070000002000c1
:1029b400a1472400aefc070062fd07000090200040
:1029c400d10320008df60700fbff37000000fa005a
:1029d400908e8000a18e800002002000031c240041
:1029e4009bf707000000e00002003d00754ea800c0
:1029f40001003700754ea900708e8000818e800022
:102a040002002000031f240091f707000000e000eb
:102a140002003d00856ea80001003700856ea90004
:102a2400308e8000418e800002002000832124002b
:102a340087f707000000e00002003d00848ea80034
:102a440001003700848ea900508e8000618e8000c2
:102a540002002000031f24007df707000000e000af
:102a640002003d0084aea8000100370084aea90036
:102a7400b08e8000c18e800002002000031c240060
:102a840073f707000000e00002003d0084cea800b8
:102a94000100370084cea900000000000080fa0085
:102aa400000006000000fa0002ccbf000000a100f4
:102ab4000010a1000020a10002ecb7000096200045
:102ac400206088001061800000a0a00000b0a00079
:102ad4001061880023cca80023eca800300020005b
:102ae400206188001062800000a0a00000b0a00057
:102af4001062880043cca80043eca80030002000fa
:102b04002062880001eca800000000000080fa00a8
:102b1400000006000000fa00889fbe00148e8000aa
:102b2400258e8000f08d8000018e80000001be00a3
:102b34000400be0046f707000000e00014003d005a
:102b4400f88d8000098e8000148e8000258e800010
:102b5400b0808000c18080000001be000400be007f
:102b64009bf70700000178000100780082027800da
:102b7400000278000801be00050078008400780097
:102b84000000be0023010700108e8800218e8800fb
:102b9400148e8000258e8000f08d8000018e8000d0
:102ba4000001be000400be002bf707000000e00097
:102bb40014003400f88d8000098e8000148e80008b
:102bc400258e8000b0808000c18080000001be009e
:102bd4000400be0075f707000001780001007800ca
:102be40082027800000278000801be000500780027
:102bf400840078000000be00ef000700108e8800fb
:102c0400218e8800108e8000218e80006011b80013
:102c140011f707000000e0001e003500108e800050
:102c2400218e800002002000031c24002cf90700e0
:102c34000001780001007800820278000002780028
:102c440090808000a18080000001be000500780013
:102c5400840078000000be005df7070000017800e2
:102c640001007800820178000001780003007800f8
:102c7400820078000000be001af707003062880066
:102c840090808000a180800016f7070070628800a1
:102c94001e00370090808000a180800011f707009b
:102ca40030628800108e8000218e800001f0a20026
:102cb40002002000031c240009f907000001780029
:102cc4000100780082027800000278009080800081
:102cd400a18080000001be00050078008400780017
:102ce4000000be003af707000001780001007800f8
:102cf40082017800000178000300780082007800e7
:102d04000000be00f7f6070070628800d48d8000d2
:102d1400e58d8000b08d8000c18d80000001be0073
:102d24000400be00caf607000000e00014003d00e5
:102d3400b88d8000c98d8000d48d8000e58d800021
:102d4400b0808000c18080000001be000400be008d
:102d54001ff7070000017800010078008202780064
:102d6400000278000801be000500780084007800a5
:102d74000000be00a7000700d08d8800e18d880008
:102d8400d48d8000e58d8000b08d8000c18d8000e1
:102d94000001be000400be00aff607000000e00022
:102da40014003400b88d8000c98d8000d48d80005b
:102db400e58d8000b0808000c18080000001be00ed
:102dc4000400be00f9f60700000178000100780055
:102dd40082027800000278000801be000500780035
:102de400840078000000be0073000700d08d8800c6
:102df400e18d8800d08d8000e18d80006011b800e5
:102e040095f607000000e0001e003400d08d80001d
:102e1400e18d800002002000031c2400b0f80700ac
:102e24000001780001007800820278000002780036
:102e340090808000a18080000001be000500780021
:102e4400840078000000be00e1f60700000178006d
:102e54000100780082017800000178000300780006
:102e6400820078000000be009ef6070030618800f2
:102e740090808000a18080009af60700706188002d
:102e84001e00370090808000a180800095f6070026
:102e940030618800d08d8000e18d800001f0a200b7
:102ea40002002000031c24008df8070000017800b4
:102eb400010078008202780000027800908080008f
:102ec400a18080000001be00050078008400780025
:102ed4000000be00bef60700000178000100780083
:102ee40082017800000178000300780082007800f5
:102ef4000000be007bf6070070618800000000003f
:102f04004f04be000080fa00000006000600fa002c
:102f1400008fbe00220798002e0090000000e00001
:102f240006003a001e0078009e00900001f0a20006
:102f3400f08d8800018e8800070037002e00900075
:102f4400e10f500004003a001e0178009e01900039
:102f5400b28d8800c38d8800000000000080fa0054
:102f6400000006000400fa00008fbe006011b800e3
:102f74001e0078009e00900037f607000000e00075
:102f8400030035001e0078009e0090000300370007
:102f94001e0078009e00900001f0a20080017800dd
:102fa4000101780003007800820078000000be0070
:102fb4000080fa00000006000800fa00008fbe003e
:102fc40022079800330798002e019000be0190005c
:102fd4001e0078009e0090001ff607000000e0002d
:102fe400030034009e0078001e00900002003700a9
:102ff400ae0090003e00900081017800000178004e
:1030040003007800820078000000be000080fa000f
:10301400000006000800fa00008fbe002207980096
:10302400330798002e019000be0190001e00780026
:103034009e00900006f607000000e00003003d003b
:103044009e0078001e00900002003700ae00900041
:103054003e009000810178000001780003007800b0
:10306400820078000000be000080fa000000060024
:103074000c00fa00008fbe00220798003307980066
:1030840044079800550798004e019000de01900017
:103094001e0078009e009000eff507000000e0009d
:1030a400040034004e019000de019000028fbe0047
:1030b4000a0037002e019000be0190001e00780027
:1030c4009e009000e2f507000000e00003003d00d0
:1030d4002e019000be019000028fbe009e00780079
:1030e4001e00900081017800000178000300780040
:1030f400820078000000be000080fa000000060094
:103104000400fa00008fbe00b2fd200093042400e6
:103114001e0078009e00900012f70700000178005e
:10312400010078008202780000027800020020008a
:103134004333240005007800840078000000be00ba
:10314400e7f70700000178000100780082007800aa
:103154008101780000017800030078008200780083
:103164000000be000080fa00000006000400fa001f
:10317400008fbe00b2fd2000930424001e007800de
:103184009e009000d6f70700000178000100780047
:1031940082027800000278000200200043332400f9
:1031a40005007800840078000000be00edf60700fa
:1031b4000001780001007800820078008101780025
:1031c4000001780003007800820078000000be004f
:1031d4000080fa00000006000600fa0010079800bc
:1031e400210798000040eb00004f780068000700ba
:1031f400ae009000808f500013003d000040eb00b3
:10320400004f7800080037001e80fb008e80e80025
:1032140011004000104078000e0007001e407800a6
:103224000040e800004f78001e80fb00ae009000d4
:10323400808f5000f4ff3c003e0007000004e000d3
:1032440001003a0031000700000000000080fa008d
:10325400000006000400fa00204798001081800056
:10326400000fe800f00720009e007800808f5000d7
:10327400020034000000eb00000f78002081800081
:103284009e007800808f500007003200118180007a
:103294004003210001004000ae4090000148780046
:1032a4009e00780011818800000000000080fa0070
:1032b400000006000200fa002181800010818000d5
:1032c400808f50000e0032002181800040032100d5
:1032d40001004000104f7800208180000000e800c9
:1032e4002081880021818000f0072000808f500019
:1032f400010034002430ef001e4078000100370044
:103304000040eb000080fa00000006000200fa0012
:1033140010c0b30026f0b700e6ff0700004f7800a6
:103324001e80fb0020118800000000000080fa00cd
:10333400000006000000fa0026d0bf000080fa005a
:10334400000006000200fa00118180002081800044
:10335400808f50000500350011818000208180009d
:1033640000805000000f78000600370021818000a3
:10337400108180008080500000082000010050006f
:10338400000f78001e0078000080fa00000006009c
:103394000200fa00ebff070080007800f00720002d
:1033a40001005000000f78001e0078000080fa0031
:1033b400000006000000fa0021e3a9002143a80050
:1033c400001980000080a1000090a100001988006d
:1033d4002043a900001980000050a0000060a00054
:1033e4000070a000001988001019800000d0a1000e
:1033f40000e0a10000f0a100101988002343a800f8
:10340400101980000080a1000090a100101988000c
:103414001119800030f82f00008060000040a000e7
:10342400101988002203a9002223a90025e3a9007a
:10343400f0c0b30024e3b70021198000f00f2e0080
:103444008080600000f020000100700020198800d6
:103454003303a9001e0ea8001f0ea8001f2ea800eb
:103464001f4ea8001f6ea8003003a8003103a80057
:103474003123a8003143a8003163a800411980001a
:1034840000fe2f00008060004019880028e3a90096
:1034940001a8a90021a8a80021e3a80000000000b9
:1034a4000080fa00000006000000fa002023a800b3
:1034b400000000000080fa00000006000000fa008e
:1034c400a01d21000080fa00000006000000fa00a0
:1034d40031d0bf000080fa00000006000000fa00ae
:1034e4003170ef00000000000080fa0000000600c8
:1034f4000000fa00817420009140780000ccb300f1
:1035040000c060007041b30048e7b700313a800062
:1035140000e02f0080806000800520000100700022
:10352400303a8800203a80000060a1000070a100b9
:10353400203a8800213a800000fe2f0000806000bd
:103544000000a000203a880012002000800720001c
:10355400a109200033742000804978008149780053
:1035640082497800103a8000000178000200a0002f
:103574006004200071052000237420008049780035
:10358400814978008249780000000000103a8000e8
:103594004c00de0067406000e14f5000fbff3a0042
:1035a4005927a800c03a80000000a0000010a10024
:1035b4000020a100c03a88005ac7bf000000a00044
:1035c4000010a0000020a0005ae7b700c03a800015
:1035d4000050a1000060a0000070a000c03a880064
:1035e40059a7a80059e7a80000000000c03a8000cd
:1035f4004e00de0061406000e14f5000fbff3a00e6
:1036040000000000103a80004500de0061406000c8
:10361400e14f5000fbff3a00000000000080fa0078
:10362400000006000200fa00004f7800618180006b
:10363400400b2100010040001e487800608180009a
:103644000000e8006081880061818000f0072000ac
:10365400808f5000010034002c30ef000000000087
:103664000080fa00000006000200fa007181800068
:10367400400b210001004000104f78007081800051
:103684000000e8007081880071818000f00720004c
:10369400808f5000010034002e30ef001e4078006f
:1036a4000080fa00000006000000fa00618180003a
:1036b40070818000808f50000200320010c0b3007f
:1036c400010037000040eb000080fa000000060013
:1036d4000200fa006181800070818000808f5000b8
:1036e40005003500618180007081800000805000f9
:1036f400000f78000600370071818000608180002f
:10370400808050000008200001005000000f780065
:103714001e0078000080fa00000006000200fa0093
:10372400ebff070080007800000820000100500033
:10373400000f78001e0078000080fa0000000600e8
:103744000000fa002002a900001180000010a1006e
:103754000020a1000011880020a2a9002062a80076
:10376400100820004011880023a2a90023e2a90028
:103774000188a9002188a800101180000060a10020
:103784000070a100101188000168a9002168a80038
:1037940021e2a8002342a800000000000080fa00f3
:1037a400000006000600fa001007980021079800a0
:1037b4000040eb00004f78000040eb00004f780021
:1037c4001100370000000000101180004900de00e5
:1037d400614060000004e000fbff3a009e0090009e
:1037e4000e80e8000108e800100178001207980034
:1037f400114078000080fb00201188001e407800f2
:103804000040e800004f78001e80fb00ae009000ee
:10381400808f5000ebff3c00000000000080fa00a5
:10382400000006000000fa000e2eef001e2eef002e
:103834003e2eef002e2eef004e2eef006e2eef00e8
:10384400808ea90080cea90080aea900816ea90057
:10385400714ea90091eea900000ea900012ea90045
:10386400014ea900706ea9001900070021368000de
:1038740000f82f0080806000e00420000100700048
:10388400203688004134800000fc2f000080600056
:103894000000a0004034880003000700000000007e
:1038a4000080fa00000006000000fa0021742000e5
:1038b4006204200073052000824878008348780061
:1038c40042c7a800000000000080fa0000000600c3
:1038d4000000fa0021742000620420007305200017
:1038e400824878008348780042c7a900000000009d
:0838f4000080fa00000006004c
:020000040000fa
:1038fc00001000000a0000008000000028100000ea
:10390c0004000000820000000000c800420000001b
:10391c000a1000000800000080000000b411000034
:10392c0026000000800000001210000008000000bb
:10393c00820000000000480042000000a04100008e
:10394c00da1100000a0000008000000030100000b6
:10395c000200000080000000341000008000000015
:10396c008000000022100000060000008000000013
:10397c00b410000080000000800000002c1000003b
:10398c0004000000800000003411000080000000e2
:10399c00800000001a1000000800000080000000e9
:1039ac003210000002000000800000000000000047
:020000040000fa
:0200000401f009
:04000800cfffff0027
:020000040000fa
:0200000401f009
:04000c00f9ffff00f9
:020000040000fa
:0200000401f009
:040010005bffff0093
:020000040000fa
:0200000401f009
:040014007fffff006b
:020000040000fa
:0200000401f009
:04001800cfffff0017
:020000040000fa
:0200000401f009
:04001c00deffff0004
:020000040000fa
:0200000401f009
:04002000cfffff000f
:00000001FF
